:020000040000FA
:10000000000000EB250000EB2C008FE2000C90E8D4
:1000100000A08AE000B08BE001704AE20B005AE1D8
:100020000000001A1D0000EB0F00BAE818E04FE2D4
:10003000010013E303F0471013FF2FE1C401000098
:10004000D40100000030B0E30040B0E30050B0E362
:100050000060B0E3102052E27800A128FCFFFF8A84
:10006000822EB0E13000A128003081451EFF2FE133
:1000700001C08FE21CFF2FE11FB500F0BDF805980D
:1000800086460FBC009C02B07047000001C08FE2A2
:100090001CFF2FE130B47546AE4630BC70470000FF
:1000A0002F0000EB0210A0E1F0FFFFEB1CC09FE56A
:1000B0000FC08CE001001CE30DE08F120FE0A001E7
:1000C0001CFF2FE101C08FE21CFF2FE100F07AF846
:1000D0005C0000007847C046EBFFFFEB3E0000EB02
:1000E0000C009FE50C109FE504209FE508309FE57C
:1000F0001EFF2FE1600000406004004060000040EF
:10010000000000EA010040E2000050E3FCFFFF1A9B
:100110001EFF2FE104E02DE50000E0E330109FE535
:10012000080081E5090000EA0E08A0E320109FE521
:10013000040081E51C009FE5F0FFFFEB0E08A0E343
:100140000C109FE50C0081E508009FE5EBFFFFEB3D
:10015000F4FFFFEA008002E040420F007047704762
:10016000704700000E50A0E1180000EB05E0A0E190
:100170000050B0E10D10A0E10A30A0E10700C0E39B
:1001800000D0A0E160D08DE220402DE9D3FFFFEB4D
:100190002040BDE80060A0E30070A0E30080A0E381
:1001A00000B0A0E30710C1E305C0A0E1C009ACE8BE
:1001B000C009ACE8C009ACE8C009ACE801D0A0E1D6
:1001C0001EFF2FE10400C046C0462000FFF782FF5B
:1001D00000009FE51EFF2FE1000000400C109FE58E
:1001E0001800A0E3563412EF1EFF2FE108000000B4
:1001F000260002001EFF2FE17847C0461EFF2FE1B8
:100200001002000000000040E8040000440000006C
:0400000500000000F7
:00000001FF
